{
  "abi": [
    {
      "inputs": [],
      "name": "OutOfBounds",
      "type": "error"
    },
    {
      "inputs": [
        {
          "internalType": "uint256",
          "name": "index",
          "type": "uint256"
        }
      ],
      "name": "getEncodedStructByIndex",
      "outputs": [
        {
          "internalType": "bytes",
          "name": "payload",
          "type": "bytes"
        }
      ],
      "stateMutability": "view",
      "type": "function"
    },
    {
      "inputs": [
        {
          "internalType": "uint256",
          "name": "index",
          "type": "uint256"
        }
      ],
      "name": "getStorageLocation",
      "outputs": [
        {
          "internalType": "bytes32",
          "name": "",
          "type": "bytes32"
        }
      ],
      "stateMutability": "pure",
      "type": "function"
    },
    {
      "inputs": [
        {
          "components": [
            {
              "internalType": "uint256",
              "name": "someField",
              "type": "uint256"
            },
            {
              "internalType": "address",
              "name": "someAddress",
              "type": "address"
            },
            {
              "internalType": "uint128",
              "name": "someOtherField",
              "type": "uint128"
            },
            {
              "internalType": "uint128",
              "name": "oneMoreField",
              "type": "uint128"
            }
          ],
          "internalType": "struct StructDefiner.MyStruct",
          "name": "s",
          "type": "tuple"
        }
      ],
      "name": "push",
      "outputs": [],
      "stateMutability": "nonpayable",
      "type": "function"
    }
  ],
  "bytecode": {
    "object": "0x608060405234801561001057600080fd5b506103b4806100206000396000f3fe608060405234801561001057600080fd5b50600436106100415760003560e01c806332067700146100465780634e263a461461006f578063655ae7571461014a575b600080fd5b610059610054366004610229565b61016b565b6040516100669190610242565b60405180910390f35b61014861007d3660046102ac565b60008054600181018255908052815160039091027f290decd9548b62a8d60345a988386fc84ba6bc95484008f6362f93160ef3e56381019190915560208201517f290decd9548b62a8d60345a988386fc84ba6bc95484008f6362f93160ef3e564820180546001600160a01b039092166001600160a01b031990921691909117905560408201516060909201516001600160801b03908116600160801b029216919091177f290decd9548b62a8d60345a988386fc84ba6bc95484008f6362f93160ef3e56590910155565b005b61015d610158366004610229565b6101e7565b604051908152602001610066565b60005460609082111561019157604051632d0483c560e21b815260040160405180910390fd5b600061019c836101e7565b604080516080808252835460018501546002909501546020840191909152828401949094526001600160801b038416606083015292831c9281019290925260a0820190529392505050565b60006101f4826003610354565b6040805160006020820152016040516020818303038152906040528051906020012060001c610223919061036b565b92915050565b60006020828403121561023b57600080fd5b5035919050565b600060208083528351808285015260005b8181101561026f57858101830151858201604001528201610253565b506000604082860101526040601f19601f8301168501019250505092915050565b80356001600160801b03811681146102a757600080fd5b919050565b6000608082840312156102be57600080fd5b6040516080810181811067ffffffffffffffff821117156102ef57634e487b7160e01b600052604160045260246000fd5b6040528235815260208301356001600160a01b038116811461031057600080fd5b602082015261032160408401610290565b604082015261033260608401610290565b60608201529392505050565b634e487b7160e01b600052601160045260246000fd5b80820281158282048414176102235761022361033e565b808201808211156102235761022361033e56fea26469706673582212206cc0980d00d3e72929ef2102a19ab26668432c27fbc33538956793d81e44ab7764736f6c63430008140033",
    "linkReferences": {}
  },
  "methodIdentifiers": {
    "getEncodedStructByIndex(uint256)": "32067700",
    "getStorageLocation(uint256)": "655ae757",
    "push((uint256,address,uint128,uint128))": "4e263a46"
  },
  "id": 18
}