{
  "abi": [
    {
      "inputs": [],
      "name": "myStruct",
      "outputs": [
        {
          "internalType": "uint256",
          "name": "someField",
          "type": "uint256"
        },
        {
          "internalType": "address",
          "name": "someAddress",
          "type": "address"
        },
        {
          "internalType": "uint128",
          "name": "someOtherField",
          "type": "uint128"
        },
        {
          "internalType": "uint128",
          "name": "oneMoreField",
          "type": "uint128"
        }
      ],
      "stateMutability": "view",
      "type": "function"
    }
  ],
  "bytecode": {
    "object": "0x6080604052348015600f57600080fd5b5060c98061001e6000396000f3fe6080604052348015600f57600080fd5b506004361060285760003560e01c80638bc9fe6c14602d575b600080fd5b600054600154600254605b92916001600160a01b0316906001600160801b0380821691600160801b90041684565b604080519485526001600160a01b039390931660208501526001600160801b0391821684840152166060830152519081900360800190f3fea2646970667358221220603476b22a6a0aa3f7d031c500e54996f3c5ec80e1fd3ea26ccaefaffeb3b62a64736f6c63430008140033",
    "linkReferences": {}
  },
  "methodIdentifiers": {
    "myStruct()": "8bc9fe6c"
  },
  "id": 19
}