{
  "abi": [
    {
      "inputs": [
        {
          "internalType": "address",
          "name": "_storageContract",
          "type": "address"
        }
      ],
      "stateMutability": "nonpayable",
      "type": "constructor"
    },
    {
      "inputs": [
        {
          "internalType": "uint256",
          "name": "index",
          "type": "uint256"
        }
      ],
      "name": "decodeStructByIndex",
      "outputs": [
        {
          "components": [
            {
              "internalType": "uint256",
              "name": "someField",
              "type": "uint256"
            },
            {
              "internalType": "address",
              "name": "someAddress",
              "type": "address"
            },
            {
              "internalType": "uint128",
              "name": "someOtherField",
              "type": "uint128"
            },
            {
              "internalType": "uint128",
              "name": "oneMoreField",
              "type": "uint128"
            }
          ],
          "internalType": "struct StructDefiner.MyStruct",
          "name": "myStruct",
          "type": "tuple"
        }
      ],
      "stateMutability": "view",
      "type": "function"
    }
  ],
  "bytecode": {
    "object": "0x608060405234801561001057600080fd5b5060405161032338038061032383398101604081905261002f91610054565b600080546001600160a01b0319166001600160a01b0392909216919091179055610084565b60006020828403121561006657600080fd5b81516001600160a01b038116811461007d57600080fd5b9392505050565b610290806100936000396000f3fe608060405234801561001057600080fd5b506004361061002b5760003560e01c8063a614c53f14610030575b600080fd5b61004361003e366004610161565b610093565b60408051825181526020808401516001600160a01b031690820152828201516fffffffffffffffffffffffffffffffff908116828401526060938401511692810192909252519081900360800190f35b604080516080810182526000808252602082018190529181018290526060810191909152600080546040516232067760e81b8152600481018590526001600160a01b0390911690633206770090602401600060405180830381865afa158015610100573d6000803e3d6000fd5b505050506040513d6000823e601f3d908101601f191682016040526101289190810190610190565b905060405191506020810151825260408101516020830152606081015160408301526080810151606083015260a0820160405250919050565b60006020828403121561017357600080fd5b5035919050565b634e487b7160e01b600052604160045260246000fd5b600060208083850312156101a357600080fd5b825167ffffffffffffffff808211156101bb57600080fd5b818501915085601f8301126101cf57600080fd5b8151818111156101e1576101e161017a565b604051601f8201601f19908116603f011681019083821181831017156102095761020961017a565b81604052828152888684870101111561022157600080fd5b600093505b828410156102435784840186015181850187015292850192610226565b60008684830101528096505050505050509291505056fea26469706673582212201247fa4d63b786337ccdbdee9000d34daf18079e3cf6358b5cdb3e90583203aa64736f6c63430008140033",
    "linkReferences": {}
  },
  "methodIdentifiers": {
    "decodeStructByIndex(uint256)": "a614c53f"
  },
  "id": 17
}